:100000004E288F018E00FF308E07031C8F07031CC4
:10001000492803308D00DF300F2003288D01E83E92
:100020008C008D09FC30031C18288C070318152838
:100030008C0700008D0F15280C181E288C1C2228F8
:10004000000022280800013E93000A308E008F0134
:100050002D20930B282810080800910190011030E2
:1000600092000D0D900D910D0E0890020F08031CCB
:100070000F0F9102031843280E0890070F0803186A
:100080000F0F910703108C0D8D0D920B31280C086A
:100090004928831383120313000008008316850187
:1000A000C03086001730831294003B309500323008
:1000B000960017109801283018020318A22886010C
:1000C0008D0116088C00003023208500203086002A
:1000D000033001208D0116088C000130232085009B
:1000E00010308600033001208D0115088C0000308F
:1000F0002320850008308600033001208D0115087B
:100100008C0001302320850004308600033001205C
:100110008D0114088C0000302320850002308600F9
:10012000033001208D0114088C000130232085004C
:100130000130860003300120860103300120980A37
:10014000031D5B281718A7280D300120A8281710B9
:10015000960A3C301602031CAF289601950A3C30E3
:100160001502031CB5289501940A18301402031CCB
:10017000BA289401861BC528940A18301402031C5F
:10018000C228940117140A300120061BD028950AB2
:100190003C301502031CCD28950117140A300120AC
:0601A0005A286300D1287B
:02400E00F13F80
:00000001FF
